{
  "_format": "hh-sol-artifact-1",
  "contractName": "OgasaCrowdSale",
  "sourceName": "contracts/OgasaCrowdSale.sol",
  "abi": [
    {
      "inputs": [
        {
          "internalType": "address",
          "name": "token_",
          "type": "address"
        }
      ],
      "stateMutability": "nonpayable",
      "type": "constructor"
    },
    {
      "anonymous": false,
      "inputs": [
        {
          "indexed": true,
          "internalType": "address",
          "name": "previousOwner",
          "type": "address"
        },
        {
          "indexed": true,
          "internalType": "address",
          "name": "newOwner",
          "type": "address"
        }
      ],
      "name": "OwnershipTransferred",
      "type": "event"
    },
    {
      "anonymous": false,
      "inputs": [
        {
          "indexed": true,
          "internalType": "address",
          "name": "referrer",
          "type": "address"
        },
        {
          "indexed": false,
          "internalType": "uint256",
          "name": "referralBonus",
          "type": "uint256"
        }
      ],
      "name": "Referral",
      "type": "event"
    },
    {
      "anonymous": false,
      "inputs": [
        {
          "indexed": false,
          "internalType": "uint256",
          "name": "amount",
          "type": "uint256"
        }
      ],
      "name": "Released",
      "type": "event"
    },
    {
      "anonymous": false,
      "inputs": [],
      "name": "Revoked",
      "type": "event"
    },
    {
      "anonymous": false,
      "inputs": [
        {
          "indexed": false,
          "internalType": "uint256",
          "name": "prevClosingTime",
          "type": "uint256"
        },
        {
          "indexed": false,
          "internalType": "uint256",
          "name": "newClosingTime",
          "type": "uint256"
        }
      ],
      "name": "TimedCrowdsaleExtended",
      "type": "event"
    },
    {
      "anonymous": false,
      "inputs": [
        {
          "indexed": true,
          "internalType": "address",
          "name": "purchaser",
          "type": "address"
        },
        {
          "indexed": true,
          "internalType": "address",
          "name": "beneficiary",
          "type": "address"
        },
        {
          "indexed": false,
          "internalType": "uint256",
          "name": "value",
          "type": "uint256"
        },
        {
          "indexed": false,
          "internalType": "uint256",
          "name": "amount",
          "type": "uint256"
        }
      ],
      "name": "TokensPurchased",
      "type": "event"
    },
    {
      "inputs": [
        {
          "internalType": "address",
          "name": "beneficiary",
          "type": "address"
        }
      ],
      "name": "buyTokens",
      "outputs": [],
      "stateMutability": "payable",
      "type": "function"
    },
    {
      "inputs": [],
      "name": "cap",
      "outputs": [
        {
          "internalType": "uint256",
          "name": "",
          "type": "uint256"
        }
      ],
      "stateMutability": "view",
      "type": "function"
    },
    {
      "inputs": [],
      "name": "capReached",
      "outputs": [
        {
          "internalType": "bool",
          "name": "",
          "type": "bool"
        }
      ],
      "stateMutability": "view",
      "type": "function"
    },
    {
      "inputs": [],
      "name": "closingTime",
      "outputs": [
        {
          "internalType": "uint256",
          "name": "",
          "type": "uint256"
        }
      ],
      "stateMutability": "view",
      "type": "function"
    },
    {
      "inputs": [
        {
          "internalType": "address",
          "name": "holder",
          "type": "address"
        }
      ],
      "name": "computeNextVestingScheduleIdForHolder",
      "outputs": [
        {
          "internalType": "bytes32",
          "name": "",
          "type": "bytes32"
        }
      ],
      "stateMutability": "view",
      "type": "function"
    },
    {
      "inputs": [
        {
          "internalType": "bytes32",
          "name": "vestingScheduleId",
          "type": "bytes32"
        }
      ],
      "name": "computeReleasableAmount",
      "outputs": [
        {
          "internalType": "uint256",
          "name": "",
          "type": "uint256"
        }
      ],
      "stateMutability": "view",
      "type": "function"
    },
    {
      "inputs": [
        {
          "internalType": "address",
          "name": "holder",
          "type": "address"
        },
        {
          "internalType": "uint256",
          "name": "index",
          "type": "uint256"
        }
      ],
      "name": "computeVestingScheduleIdForAddressAndIndex",
      "outputs": [
        {
          "internalType": "bytes32",
          "name": "",
          "type": "bytes32"
        }
      ],
      "stateMutability": "pure",
      "type": "function"
    },
    {
      "inputs": [
        {
          "internalType": "address",
          "name": "",
          "type": "address"
        }
      ],
      "name": "contributions",
      "outputs": [
        {
          "internalType": "uint256",
          "name": "",
          "type": "uint256"
        }
      ],
      "stateMutability": "view",
      "type": "function"
    },
    {
      "inputs": [
        {
          "internalType": "address",
          "name": "_beneficiary",
          "type": "address"
        },
        {
          "internalType": "uint256",
          "name": "_start",
          "type": "uint256"
        },
        {
          "internalType": "uint256",
          "name": "_cliff",
          "type": "uint256"
        },
        {
          "internalType": "uint256",
          "name": "_duration",
          "type": "uint256"
        },
        {
          "internalType": "uint256",
          "name": "_slicePeriodSeconds",
          "type": "uint256"
        },
        {
          "internalType": "bool",
          "name": "_revocable",
          "type": "bool"
        },
        {
          "internalType": "uint256",
          "name": "_amount",
          "type": "uint256"
        }
      ],
      "name": "createVestingSchedule",
      "outputs": [],
      "stateMutability": "nonpayable",
      "type": "function"
    },
    {
      "inputs": [
        {
          "internalType": "address",
          "name": "holder",
          "type": "address"
        }
      ],
      "name": "getLastVestingScheduleForHolder",
      "outputs": [
        {
          "components": [
            {
              "internalType": "bool",
              "name": "initialized",
              "type": "bool"
            },
            {
              "internalType": "address",
              "name": "beneficiary",
              "type": "address"
            },
            {
              "internalType": "uint256",
              "name": "cliff",
              "type": "uint256"
            },
            {
              "internalType": "uint256",
              "name": "start",
              "type": "uint256"
            },
            {
              "internalType": "uint256",
              "name": "duration",
              "type": "uint256"
            },
            {
              "internalType": "uint256",
              "name": "slicePeriodSeconds",
              "type": "uint256"
            },
            {
              "internalType": "bool",
              "name": "revocable",
              "type": "bool"
            },
            {
              "internalType": "uint256",
              "name": "amountTotal",
              "type": "uint256"
            },
            {
              "internalType": "uint256",
              "name": "released",
              "type": "uint256"
            },
            {
              "internalType": "bool",
              "name": "revoked",
              "type": "bool"
            }
          ],
          "internalType": "struct TokenVesting.VestingSchedule",
          "name": "",
          "type": "tuple"
        }
      ],
      "stateMutability": "view",
      "type": "function"
    },
    {
      "inputs": [],
      "name": "getRefLink",
      "outputs": [
        {
          "internalType": "bytes32",
          "name": "",
          "type": "bytes32"
        }
      ],
      "stateMutability": "view",
      "type": "function"
    },
    {
      "inputs": [],
      "name": "getReferrer",
      "outputs": [
        {
          "internalType": "address",
          "name": "",
          "type": "address"
        }
      ],
      "stateMutability": "view",
      "type": "function"
    },
    {
      "inputs": [],
      "name": "getToken",
      "outputs": [
        {
          "internalType": "address",
          "name": "",
          "type": "address"
        }
      ],
      "stateMutability": "view",
      "type": "function"
    },
    {
      "inputs": [
        {
          "internalType": "address",
          "name": "_beneficiary",
          "type": "address"
        }
      ],
      "name": "getUserContribution",
      "outputs": [
        {
          "internalType": "uint256",
          "name": "",
          "type": "uint256"
        }
      ],
      "stateMutability": "view",
      "type": "function"
    },
    {
      "inputs": [
        {
          "internalType": "uint256",
          "name": "index",
          "type": "uint256"
        }
      ],
      "name": "getVestingIdAtIndex",
      "outputs": [
        {
          "internalType": "bytes32",
          "name": "",
          "type": "bytes32"
        }
      ],
      "stateMutability": "view",
      "type": "function"
    },
    {
      "inputs": [
        {
          "internalType": "bytes32",
          "name": "vestingScheduleId",
          "type": "bytes32"
        }
      ],
      "name": "getVestingSchedule",
      "outputs": [
        {
          "components": [
            {
              "internalType": "bool",
              "name": "initialized",
              "type": "bool"
            },
            {
              "internalType": "address",
              "name": "beneficiary",
              "type": "address"
            },
            {
              "internalType": "uint256",
              "name": "cliff",
              "type": "uint256"
            },
            {
              "internalType": "uint256",
              "name": "start",
              "type": "uint256"
            },
            {
              "internalType": "uint256",
              "name": "duration",
              "type": "uint256"
            },
            {
              "internalType": "uint256",
              "name": "slicePeriodSeconds",
              "type": "uint256"
            },
            {
              "internalType": "bool",
              "name": "revocable",
              "type": "bool"
            },
            {
              "internalType": "uint256",
              "name": "amountTotal",
              "type": "uint256"
            },
            {
              "internalType": "uint256",
              "name": "released",
              "type": "uint256"
            },
            {
              "internalType": "bool",
              "name": "revoked",
              "type": "bool"
            }
          ],
          "internalType": "struct TokenVesting.VestingSchedule",
          "name": "",
          "type": "tuple"
        }
      ],
      "stateMutability": "view",
      "type": "function"
    },
    {
      "inputs": [
        {
          "internalType": "address",
          "name": "holder",
          "type": "address"
        },
        {
          "internalType": "uint256",
          "name": "index",
          "type": "uint256"
        }
      ],
      "name": "getVestingScheduleByAddressAndIndex",
      "outputs": [
        {
          "components": [
            {
              "internalType": "bool",
              "name": "initialized",
              "type": "bool"
            },
            {
              "internalType": "address",
              "name": "beneficiary",
              "type": "address"
            },
            {
              "internalType": "uint256",
              "name": "cliff",
              "type": "uint256"
            },
            {
              "internalType": "uint256",
              "name": "start",
              "type": "uint256"
            },
            {
              "internalType": "uint256",
              "name": "duration",
              "type": "uint256"
            },
            {
              "internalType": "uint256",
              "name": "slicePeriodSeconds",
              "type": "uint256"
            },
            {
              "internalType": "bool",
              "name": "revocable",
              "type": "bool"
            },
            {
              "internalType": "uint256",
              "name": "amountTotal",
              "type": "uint256"
            },
            {
              "internalType": "uint256",
              "name": "released",
              "type": "uint256"
            },
            {
              "internalType": "bool",
              "name": "revoked",
              "type": "bool"
            }
          ],
          "internalType": "struct TokenVesting.VestingSchedule",
          "name": "",
          "type": "tuple"
        }
      ],
      "stateMutability": "view",
      "type": "function"
    },
    {
      "inputs": [],
      "name": "getVestingSchedulesCount",
      "outputs": [
        {
          "internalType": "uint256",
          "name": "",
          "type": "uint256"
        }
      ],
      "stateMutability": "view",
      "type": "function"
    },
    {
      "inputs": [
        {
          "internalType": "address",
          "name": "_beneficiary",
          "type": "address"
        }
      ],
      "name": "getVestingSchedulesCountByBeneficiary",
      "outputs": [
        {
          "internalType": "uint256",
          "name": "",
          "type": "uint256"
        }
      ],
      "stateMutability": "view",
      "type": "function"
    },
    {
      "inputs": [],
      "name": "getVestingSchedulesTotalAmount",
      "outputs": [
        {
          "internalType": "uint256",
          "name": "",
          "type": "uint256"
        }
      ],
      "stateMutability": "view",
      "type": "function"
    },
    {
      "inputs": [],
      "name": "getWithdrawableAmount",
      "outputs": [
        {
          "internalType": "uint256",
          "name": "",
          "type": "uint256"
        }
      ],
      "stateMutability": "view",
      "type": "function"
    },
    {
      "inputs": [],
      "name": "hasClosed",
      "outputs": [
        {
          "internalType": "bool",
          "name": "",
          "type": "bool"
        }
      ],
      "stateMutability": "view",
      "type": "function"
    },
    {
      "inputs": [],
      "name": "investorHardCap",
      "outputs": [
        {
          "internalType": "uint256",
          "name": "",
          "type": "uint256"
        }
      ],
      "stateMutability": "view",
      "type": "function"
    },
    {
      "inputs": [],
      "name": "investorMinCap",
      "outputs": [
        {
          "internalType": "uint256",
          "name": "",
          "type": "uint256"
        }
      ],
      "stateMutability": "view",
      "type": "function"
    },
    {
      "inputs": [],
      "name": "isOpen",
      "outputs": [
        {
          "internalType": "bool",
          "name": "",
          "type": "bool"
        }
      ],
      "stateMutability": "view",
      "type": "function"
    },
    {
      "inputs": [],
      "name": "openingTime",
      "outputs": [
        {
          "internalType": "uint256",
          "name": "",
          "type": "uint256"
        }
      ],
      "stateMutability": "view",
      "type": "function"
    },
    {
      "inputs": [],
      "name": "owner",
      "outputs": [
        {
          "internalType": "address",
          "name": "",
          "type": "address"
        }
      ],
      "stateMutability": "view",
      "type": "function"
    },
    {
      "inputs": [],
      "name": "rate",
      "outputs": [
        {
          "internalType": "uint256",
          "name": "",
          "type": "uint256"
        }
      ],
      "stateMutability": "view",
      "type": "function"
    },
    {
      "inputs": [
        {
          "internalType": "bytes32",
          "name": "vestingScheduleId",
          "type": "bytes32"
        },
        {
          "internalType": "uint256",
          "name": "amount",
          "type": "uint256"
        }
      ],
      "name": "release",
      "outputs": [],
      "stateMutability": "nonpayable",
      "type": "function"
    },
    {
      "inputs": [],
      "name": "renounceOwnership",
      "outputs": [],
      "stateMutability": "nonpayable",
      "type": "function"
    },
    {
      "inputs": [
        {
          "internalType": "bytes32",
          "name": "vestingScheduleId",
          "type": "bytes32"
        }
      ],
      "name": "revoke",
      "outputs": [],
      "stateMutability": "nonpayable",
      "type": "function"
    },
    {
      "inputs": [
        {
          "internalType": "bytes32",
          "name": "refLink",
          "type": "bytes32"
        }
      ],
      "name": "setRefLink",
      "outputs": [],
      "stateMutability": "nonpayable",
      "type": "function"
    },
    {
      "inputs": [
        {
          "internalType": "address",
          "name": "referrer",
          "type": "address"
        }
      ],
      "name": "setReferrer",
      "outputs": [],
      "stateMutability": "nonpayable",
      "type": "function"
    },
    {
      "inputs": [],
      "name": "token",
      "outputs": [
        {
          "internalType": "contract IERC20",
          "name": "",
          "type": "address"
        }
      ],
      "stateMutability": "view",
      "type": "function"
    },
    {
      "inputs": [
        {
          "internalType": "address",
          "name": "newOwner",
          "type": "address"
        }
      ],
      "name": "transferOwnership",
      "outputs": [],
      "stateMutability": "nonpayable",
      "type": "function"
    },
    {
      "inputs": [
        {
          "internalType": "address",
          "name": "",
          "type": "address"
        }
      ],
      "name": "userInfo",
      "outputs": [
        {
          "internalType": "bytes32",
          "name": "refLink",
          "type": "bytes32"
        },
        {
          "internalType": "address",
          "name": "referrer",
          "type": "address"
        }
      ],
      "stateMutability": "view",
      "type": "function"
    },
    {
      "inputs": [],
      "name": "weiRaised",
      "outputs": [
        {
          "internalType": "uint256",
          "name": "",
          "type": "uint256"
        }
      ],
      "stateMutability": "view",
      "type": "function"
    },
    {
      "inputs": [
        {
          "internalType": "uint256",
          "name": "amount",
          "type": "uint256"
        }
      ],
      "name": "withdraw",
      "outputs": [],
      "stateMutability": "nonpayable",
      "type": "function"
    },
    {
      "stateMutability": "payable",
      "type": "receive"
    }
  ],
  "bytecode": "0x60c0604052668e1bc9bf040000600655683635c9adc5dea00000600855426009819055620000309061012c620001e5565b600a5566071afd498d0000600b556802b5e3af16b1880000600c553480156200005857600080fd5b50604051620024e0380380620024e08339810160408190526200007b91620001b5565b80620000873362000165565b600180556001600160a01b038116620000e75760405162461bcd60e51b815260206004820152601560248201527f546f6b656e206973205a65726f2061646472657373000000000000000000000060448201526064015b60405180910390fd5b60601b6001600160601b0319166080526001600160a01b0381166200014f5760405162461bcd60e51b815260206004820152601560248201527f546f6b656e206973205a65726f206164647265737300000000000000000000006044820152606401620000de565b60601b6001600160601b03191660a0526200020a565b600080546001600160a01b038381166001600160a01b0319831681178455604051919092169283917f8be0079c531659141344cd1fd0a4f28419497f9722a3daafe3b4186f6b6457e09190a35050565b600060208284031215620001c7578081fd5b81516001600160a01b0381168114620001de578182fd5b9392505050565b600082198211156200020557634e487b7160e01b81526011600452602481fd5b500190565b60805160601c60a05160601c6122956200024b600039600061075401526000818161031301528181610e6001528181611159015261133e01526122956000f3fe6080604052600436106102295760003560e01c80637e913dc611610123578063bb8b2b47116100ab578063f2fde38b1161006f578063f2fde38b146106c5578063f51321d7146106e5578063f7c469f014610705578063f9079b3714610725578063fc0c546a1461074557600080fd5b8063bb8b2b471461061e578063d41141e814610654578063ea1bb3d514610681578063ec8ac4d8146106a1578063ed5db874146106af57600080fd5b80639ef346b4116100f25780639ef346b414610566578063a18a7bfc14610586578063b25d7f54146105d3578063b75c7dc6146105e9578063b7a8807c1461060957600080fd5b80637e913dc6146104e65780638af104da146105135780638da5cb5b1461053357806390be10cc1461055157600080fd5b806342e94c90116101b15780635a7bb69a116101755780635a7bb69a1461042b5780635e52a00b1461046157806366afd8ef1461048f5780636b250d75146104af578063715018a6146104d157600080fd5b806342e94c90146103aa57806347535d7b146103d757806348deb471146103ec5780634b6753bc146104015780634f9359451461041657600080fd5b806321df0da7116101f857806321df0da7146103045780632c4e722e1461034b5780632e1a7d4d14610360578063355274ea146103805780634042b66f1461039557600080fd5b806313083617146102435780631515bc2b1461026757806317e289e91461028a5780631959a002146102aa57600080fd5b3661023e5761023c33610778565b610778565b005b600080fd5b34801561024f57600080fd5b506002545b6040519081526020015b60405180910390f35b34801561027357600080fd5b50600a5442115b604051901515815260200161025e565b34801561029657600080fd5b5061023c6102a5366004611ff0565b610857565b3480156102b657600080fd5b506102e76102c5366004611fad565b600e60205260009081526040902080546001909101546001600160a01b031682565b604080519283526001600160a01b0390911660208301520161025e565b34801561031057600080fd5b507f00000000000000000000000000000000000000000000000000000000000000005b6040516001600160a01b03909116815260200161025e565b34801561035757600080fd5b50600654610254565b34801561036c57600080fd5b5061023c61037b366004612072565b610cbb565b34801561038c57600080fd5b50600854610254565b3480156103a157600080fd5b50600754610254565b3480156103b657600080fd5b506102546103c5366004611fad565b600d6020526000908152604090205481565b3480156103e357600080fd5b5061027a610e8e565b3480156103f857600080fd5b50600454610254565b34801561040d57600080fd5b50600a54610254565b34801561042257600080fd5b5061027a610ea9565b34801561043757600080fd5b50610254610446366004611fad565b6001600160a01b031660009081526005602052604090205490565b34801561046d57600080fd5b50336000908152600e60205260409020600101546001600160a01b0316610333565b34801561049b57600080fd5b5061023c6104aa3660046120a2565b610ebe565b3480156104bb57600080fd5b50336000908152600e6020526040902054610254565b3480156104dd57600080fd5b5061023c61118e565b3480156104f257600080fd5b50610506610501366004611fad565b6111f4565b60405161025e9190612112565b34801561051f57600080fd5b5061025461052e366004611fc7565b6112cc565b34801561053f57600080fd5b506000546001600160a01b0316610333565b34801561055d57600080fd5b50610254611313565b34801561057257600080fd5b50610506610581366004612072565b6113be565b34801561059257600080fd5b5061023c6105a1366004611fad565b336000908152600e6020526040902060010180546001600160a01b0319166001600160a01b0392909216919091179055565b3480156105df57600080fd5b50610254600b5481565b3480156105f557600080fd5b5061023c610604366004612072565b611465565b34801561061557600080fd5b50600954610254565b34801561062a57600080fd5b50610254610639366004611fad565b6001600160a01b03166000908152600d602052604090205490565b34801561066057600080fd5b5061023c61066f366004612072565b336000908152600e6020526040902055565b34801561068d57600080fd5b5061025461069c366004612072565b61165e565b61023c610237366004611fad565b3480156106bb57600080fd5b50610254600c5481565b3480156106d157600080fd5b5061023c6106e0366004611fad565b611748565b3480156106f157600080fd5b50610506610700366004611fc7565b611813565b34801561071157600080fd5b50610254610720366004611fad565b61182f565b34801561073157600080fd5b50610254610740366004612072565b611859565b34801561075157600080fd5b507f0000000000000000000000000000000000000000000000000000000000000000610333565b600260015414156107d05760405162461bcd60e51b815260206004820152601f60248201527f5265656e7472616e637947756172643a207265656e7472616e742063616c6c0060448201526064015b60405180910390fd5b6002600155346107e082826118ef565b60006107eb82611ac8565b6007549091506107fb9083611adf565b6007556108088382611aeb565b60408051838152602081018390526001600160a01b0385169133917f6faf93231a456e552dbc9961f58d9713ee4f2e69d15f1975b050ef0911053a7b910160405180910390a350506001805550565b80306001600160a01b03166390be10cc6040518163ffffffff1660e01b815260040160206040518083038186803b15801561089157600080fd5b505afa1580156108a5573d6000803e3d6000fd5b505050506040513d601f19601f820116820180604052508101906108c9919061208a565b10156109505760405162461bcd60e51b815260206004820152604a60248201527f546f6b656e56657374696e673a2063616e6e6f7420637265617465207665737460448201527f696e67207363686564756c652062656361757365206e6f742073756666696369606482015269656e7420746f6b656e7360b01b608482015260a4016107c7565b600084116109ab5760405162461bcd60e51b815260206004820152602260248201527f546f6b656e56657374696e673a206475726174696f6e206d757374206265203e604482015261020360f41b60648201526084016107c7565b600081116109fb5760405162461bcd60e51b815260206004820181905260248201527f546f6b656e56657374696e673a20616d6f756e74206d757374206265203e203060448201526064016107c7565b6001831015610a625760405162461bcd60e51b815260206004820152602d60248201527f546f6b656e56657374696e673a20736c696365506572696f645365636f6e647360448201526c206d757374206265203e3d203160981b60648201526084016107c7565b604051630f7c469f60e41b81526001600160a01b0388166004820152600090309063f7c469f09060240160206040518083038186803b158015610aa457600080fd5b505afa158015610ab8573d6000803e3d6000fd5b505050506040513d601f19601f82011682018060405250810190610adc919061208a565b90506000610aea8888611adf565b90506040518061014001604052806001151581526020018a6001600160a01b03168152602001828152602001898152602001878152602001868152602001851515815260200184815260200160008152602001600015158152506003600084815260200190815260200160002060008201518160000160006101000a81548160ff02191690831515021790555060208201518160000160016101000a8154816001600160a01b0302191690836001600160a01b0316021790555060408201518160010155606082015181600201556080820151816003015560a0820151816004015560c08201518160050160006101000a81548160ff02191690831515021790555060e0820151816006015561010082015181600701556101208201518160080160006101000a81548160ff021916908315150217905550905050610c3a83600454611adf90919063ffffffff16565b6004556002805460018181019092557f405787fa12a823e0f2b7631cc41b3ba8828b3321ca811111fa75cd3aa3bb5ace018390556001600160a01b038a1660009081526005602052604090205490610c93908290611adf565b6001600160a01b03909a16600090815260056020526040902099909955505050505050505050565b60026001541415610d0e5760405162461bcd60e51b815260206004820152601f60248201527f5265656e7472616e637947756172643a207265656e7472616e742063616c6c0060448201526064016107c7565b60026001556000546001600160a01b03163314610d6d5760405162461bcd60e51b815260206004820181905260248201527f4f776e61626c653a2063616c6c6572206973206e6f7420746865206f776e657260448201526064016107c7565b80306001600160a01b03166390be10cc6040518163ffffffff1660e01b815260040160206040518083038186803b158015610da757600080fd5b505afa158015610dbb573d6000803e3d6000fd5b505050506040513d601f19601f82011682018060405250810190610ddf919061208a565b1015610e415760405162461bcd60e51b815260206004820152602b60248201527f546f6b656e56657374696e673a206e6f7420656e6f756768207769746864726160448201526a7761626c652066756e647360a81b60648201526084016107c7565b610e87610e566000546001600160a01b031690565b6001600160a01b037f0000000000000000000000000000000000000000000000000000000000000000169083611b88565b5060018055565b60006009544210158015610ea45750600a544211155b905090565b6000600854610eb760075490565b1015905090565b60026001541415610f115760405162461bcd60e51b815260206004820152601f60248201527f5265656e7472616e637947756172643a207265656e7472616e742063616c6c0060448201526064016107c7565b60026001908155600083815260036020526040902054839160ff909116151514610f3a57600080fd5b60008181526003602052604090206008015460ff1615610f5957600080fd5b6000838152600360205260408120805491549091336001600160a01b03610100909204821681149291909116148180610f8f5750805b61100c5760405162461bcd60e51b815260206004820152604260248201527f546f6b656e56657374696e673a206f6e6c792062656e6566696369617279206160448201527f6e64206f776e65722063616e2072656c656173652076657374656420746f6b656064820152616e7360f01b608482015260a4016107c7565b6040805161014081018252845460ff808216151583526001600160a01b03610100928390041660208401526001870154938301939093526002860154606083015260038601546080830152600486015460a083015260058601548316151560c0830152600686015460e08301526007860154908201526008850154909116151561012082015260009061109e90611bda565b9050858110156111165760405162461bcd60e51b815260206004820152603d60248201527f546f6b656e56657374696e673a2063616e6e6f742072656c6561736520746f6b60448201527f656e732c206e6f7420656e6f7567682076657374656420746f6b656e7300000060648201526084016107c7565b60078401546111259087611adf565b600785015583546004546101009091046001600160a01b0316906111499088611cbd565b6004556111806001600160a01b037f0000000000000000000000000000000000000000000000000000000000000000168289611b88565b505060018055505050505050565b6000546001600160a01b031633146111e85760405162461bcd60e51b815260206004820181905260248201527f4f776e61626c653a2063616c6c6572206973206e6f7420746865206f776e657260448201526064016107c7565b6111f26000611cc9565b565b6111fc611f2f565b6001600160a01b0382166000908152600560205260408120546003919061122b90859061052e906001906121f4565b81526020808201929092526040908101600020815161014081018352815460ff808216151583526001600160a01b036101009283900416958301959095526001830154938201939093526002820154606082015260038201546080820152600482015460a082015260058201548416151560c0820152600682015460e082015260078201549281019290925260080154909116151561012082015292915050565b6040516bffffffffffffffffffffffff19606084901b1660208201526034810182905260009060540160405160208183030381529060405280519060200120905092915050565b600480546040516370a0823160e01b81523092810192909252600091610ea491906001600160a01b037f000000000000000000000000000000000000000000000000000000000000000016906370a082319060240160206040518083038186803b15801561138057600080fd5b505afa158015611394573d6000803e3d6000fd5b505050506040513d601f19601f820116820180604052508101906113b8919061208a565b90611cbd565b6113c6611f2f565b50600090815260036020818152604092839020835161014081018552815460ff808216151583526001600160a01b0361010092839004169483019490945260018301549582019590955260028201546060820152928101546080840152600481015460a084015260058101548216151560c0840152600681015460e0840152600781015493830193909352600890920154909116151561012082015290565b6000546001600160a01b031633146114bf5760405162461bcd60e51b815260206004820181905260248201527f4f776e61626c653a2063616c6c6572206973206e6f7420746865206f776e657260448201526064016107c7565b600081815260036020526040902054819060ff1615156001146114e157600080fd5b60008181526003602052604090206008015460ff161561150057600080fd5b6000828152600360205260409020600581015460ff1615156001146115765760405162461bcd60e51b815260206004820152602660248201527f546f6b656e56657374696e673a2076657374696e67206973206e6f74207265766044820152656f6361626c6560d01b60648201526084016107c7565b6040805161014081018252825460ff808216151583526001600160a01b03610100928390041660208401526001850154938301939093526002840154606083015260038401546080830152600484015460a083015260058401548316151560c0830152600684015460e08301526007840154908201526008830154909116151561012082015260009061160890611bda565b9050801561161a5761161a8482610ebe565b600061163783600701548460060154611cbd90919063ffffffff16565b6004549091506116479082611cbd565b6004555050600801805460ff191660011790555050565b600081815260036020526040812054829060ff16151560011461168057600080fd5b60008181526003602052604090206008015460ff161561169f57600080fd5b600083815260036020818152604092839020835161014081018552815460ff808216151583526001600160a01b0361010092839004169483019490945260018301549582019590955260028201546060820152928101546080840152600481015460a084015260058101548216151560c0840152600681015460e0840152600781015493830193909352600883015416151561012082015261174090611bda565b949350505050565b6000546001600160a01b031633146117a25760405162461bcd60e51b815260206004820181905260248201527f4f776e61626c653a2063616c6c6572206973206e6f7420746865206f776e657260448201526064016107c7565b6001600160a01b0381166118075760405162461bcd60e51b815260206004820152602660248201527f4f776e61626c653a206e6577206f776e657220697320746865207a65726f206160448201526564647265737360d01b60648201526084016107c7565b61181081611cc9565b50565b61181b611f2f565b61182861058184846112cc565b9392505050565b6001600160a01b0381166000908152600560205260408120546118539083906112cc565b92915050565b600061186460025490565b82106118bc5760405162461bcd60e51b815260206004820152602160248201527f546f6b656e56657374696e673a20696e646578206f7574206f6620626f756e646044820152607360f81b60648201526084016107c7565b600282815481106118dd57634e487b7160e01b600052603260045260246000fd5b90600052602060002001549050919050565b6001600160a01b0382166119585760405162461bcd60e51b815260206004820152602a60248201527f43726f776473616c653a2062656e656669636961727920697320746865207a65604482015269726f206164647265737360b01b60648201526084016107c7565b806119a55760405162461bcd60e51b815260206004820152601960248201527f43726f776473616c653a20776569416d6f756e7420697320300000000000000060448201526064016107c7565b6008546119bb826119b560075490565b90611adf565b1115611a095760405162461bcd60e51b815260206004820152601d60248201527f43617070656443726f776473616c653a2063617020657863656564656400000060448201526064016107c7565b6001600160a01b0382166000908152600d602052604081205490611a2d8284611adf565b9050600b548110158015611a435750600c548111155b611aa75760405162461bcd60e51b815260206004820152602f60248201527f43617070656443726f776473616c653a20696e646976696475616c206361702060448201526e1b5a5b8bdb585e081b9bdd081b595d608a1b60648201526084016107c7565b6001600160a01b039093166000908152600d60205260409020929092555050565b600061185360065483611d1990919063ffffffff16565b6000611828828461219d565b611af58282611d25565b6001600160a01b038083166000908152600e6020526040902060010154168015611b835760006064611b28346003611d19565b611b3291906121b5565b9050611b3e8282611d25565b816001600160a01b03167f5db31c63b6c985d138b0b2896458c45ecf94b259da29b7623bdef92b5853d0cd82604051611b7991815260200190565b60405180910390a2505b505050565b604080516001600160a01b038416602482015260448082018490528251808303909101815260649091019091526020810180516001600160e01b031663a9059cbb60e01b179052611b83908490611d3d565b60408101516000904290811080611bf8575061012083015115156001145b15611c065750600092915050565b60808301516060840151611c1991611adf565b8110611c335761010083015160e084015161182891611cbd565b6000611c4c846060015183611cbd90919063ffffffff16565b60a08501519091506000611c608383611e0f565b90506000611c6e8284611d19565b90506000611c978860800151611c91848b60e00151611d1990919063ffffffff16565b90611e0f565b9050611cb188610100015182611cbd90919063ffffffff16565b98975050505050505050565b600061182882846121f4565b600080546001600160a01b038381166001600160a01b0319831681178455604051919092169283917f8be0079c531659141344cd1fd0a4f28419497f9722a3daafe3b4186f6b6457e09190a35050565b600061182882846121d5565b611d39824260006103e86001600087610857565b5050565b6000611d92826040518060400160405280602081526020017f5361666545524332303a206c6f772d6c6576656c2063616c6c206661696c6564815250856001600160a01b0316611e1b9092919063ffffffff16565b805190915015611b835780806020019051810190611db09190612056565b611b835760405162461bcd60e51b815260206004820152602a60248201527f5361666545524332303a204552433230206f7065726174696f6e20646964206e6044820152691bdd081cdd58d8d9595960b21b60648201526084016107c7565b600061182882846121b5565b60606117408484600085856001600160a01b0385163b611e7d5760405162461bcd60e51b815260206004820152601d60248201527f416464726573733a2063616c6c20746f206e6f6e2d636f6e747261637400000060448201526064016107c7565b600080866001600160a01b03168587604051611e9991906120c3565b60006040518083038185875af1925050503d8060008114611ed6576040519150601f19603f3d011682016040523d82523d6000602084013e611edb565b606091505b5091509150611eeb828286611ef6565b979650505050505050565b60608315611f05575081611828565b825115611f155782518084602001fd5b8160405162461bcd60e51b81526004016107c791906120df565b60405180610140016040528060001515815260200160006001600160a01b031681526020016000815260200160008152602001600081526020016000815260200160001515815260200160008152602001600081526020016000151581525090565b80356001600160a01b0381168114611fa857600080fd5b919050565b600060208284031215611fbe578081fd5b61182882611f91565b60008060408385031215611fd9578081fd5b611fe283611f91565b946020939093013593505050565b600080600080600080600060e0888a03121561200a578283fd5b61201388611f91565b96506020880135955060408801359450606088013593506080880135925060a088013561203f81612251565b8092505060c0880135905092959891949750929550565b600060208284031215612067578081fd5b815161182881612251565b600060208284031215612083578081fd5b5035919050565b60006020828403121561209b578081fd5b5051919050565b600080604083850312156120b4578182fd5b50508035926020909101359150565b600082516120d581846020870161220b565b9190910192915050565b60208152600082518060208401526120fe81604085016020870161220b565b601f01601f19169190910160400192915050565b8151151581526101408101602083015161213760208401826001600160a01b03169052565b5060408301516040830152606083015160608301526080830151608083015260a083015160a083015260c083015161217360c084018215159052565b5060e083810151908301526101008084015190830152610120928301511515929091019190915290565b600082198211156121b0576121b061223b565b500190565b6000826121d057634e487b7160e01b81526012600452602481fd5b500490565b60008160001904831182151516156121ef576121ef61223b565b500290565b6000828210156122065761220661223b565b500390565b60005b8381101561222657818101518382015260200161220e565b83811115612235576000848401525b50505050565b634e487b7160e01b600052601160045260246000fd5b801515811461181057600080fdfea26469706673582212203225820c124f25cc43b47e16f4d80f581e77243689619b2f1362c195fb3a9f7264736f6c63430008040033",
  "linkReferences": {},
  "deployedLinkReferences": {}
}